S01C0000456D6265646465645F49495F49434D5F32303934382E7333373F
S113000000200020813D0000AD3D0000AD3D00001A
S1130010AD3D0000AD3D0000AD3D0000AD3D000034
S1130020AD3D0000AD3D0000AD3D0000AD3D000024
S1130030AD3D0000AC3D0000AD3D0000E9320000E4
S1130040AD3D000049050000AD3D0000AD3D0000A0
S1130050A9620000AD3D000069050000AD3D00004F
S11300604D3C00005B3C0000AD3D0000AD3D000098
S1130070DD2B0000AD3D0000AD3D0000AD3D0000B6
S1130080AD3D0000293B0000D53B0000AD3D000024
S1130090AD3D000010B5064C2378002B07D1054B6D
S11300A0002B02D0044800E000BF0123237010BDE0
S11300B0D000002000000000D09B0000044B10B5CD
S11300C0002B03D00349044800E000BF10BDC04624
S11300D000000000D4000020D09B0000164B002B31
S11300E000D1144B9D46402292029A1A9246002156
S11300F08B460F461348144A121A09F0E1F90F4BC4
S1130100002B00D098470E4B002B00D098470020BE
S1130110002104000D000D48002802D00C4800E026
S113012000BF09F0A9F92000290000F0DFF809F068
S11301308DF9C046000008000020002000000000E7
S113014000000000D0000020B402002000000000E5
S11301500000000080B500AF034BDB6C1B0EDBB26C
S11301601800BD4680BDC046B081E00F80B582B0A6
S113017000AF786004498E235B007A68CA50C04699
S1130180BD4602B080BDC0460060004080B582B06C
S113019000AF02003960FB1D1A70FB1D1B78002B99
S11301A00DD0FB1D1B78012B09D0FB1D1B78022BE6
S11301B005D0FB1D1B78032B01D0FB1D1B780122EE
S11301C03B689A4010000749FB1D1A781300DB00B6
S11301D09B189B00CB1814331860C046BD4602B070
S11301E080BDC0460060004080B582B000AF020010
S11301F03960FB1D1A70FB1D1B78002B0DD0FB1DF5
S11302001B78012B09D0FB1D1B78022B05D0FB1D8D
S11302101B78032B01D0FB1D1B7801223B689A40FD
S113022010000749FB1D1A781300DB009B189B0084
S1130230CB1810331860C046BD4602B080BDC0461E
S11302400060004090B583B000AF0C4B01221A64EB
S1130250FC1DFFF77FFF03002370FB1D1B78812B20
S113026008D8074B074A1A60074B1A68064B074918
S11302700A401A60C046BD4603B090BD00000C4061
S113028018600C4005000004E4800C40FFFFFFFEF2
S113029080B500AF124B180004F0F9FD114B1800A3
S11302A005F02AF8104A0F4B1100180005F018F950
S11302B00D4B1B68181C07F0FBF90300180003F032
S11302C09FFB002004F090F90B210420FFF78CFF22
S11302D00B210420FFF75AFFC046BD4680BDC0462F
S11302E078010020840100206801002080B582B0DC
S11302F000AF844B00221A70824B1B78DBB2052BB3
S1130300FAD89A00804BD3181B689F46FFF79AFFD0
S11303100421112000F0D0FF002304220B2104202B
S113032001F0A8FB04F0ECF8784800230122042132
S113033003F06EF802F09CFB754B180002F042FBD0
S113034004F0D0F900F046F905F04CFF714B1800A9
S113035005F0E8FF704B180003F032FA6F4B0122EE
S11303601A700021012004F0A1FBFB1D00221A7069
S113037016E0002004F016F9012004F013F96420BB
S113038002F068FF002004F0EBF8012004F0E8F824
S1130390642002F05FFFFB1D1A78FB1D01321A7006
S11303A0FB1D1B78072BE4D9564B05221A70A7E0D6
S11303B0FFF76EFF534B05221A70A1E005F0A6FF6C
S11303C0544B180005F0AEFF554B180003F0F8F934
S11303D04C4B05221A7093E0524B1A1C3221012017
S11303E004F055FE642002F035FF012001F0CCF941
S11303F04D4B00221A704B4B1A1C3221012004F081
S113040046FE002004F0D2FA642002F023FF012209
S11304100121012004F0B5FC642002F01BFF414BD4
S1130420181C04F076FB002004F0FFFD002004F00B
S1130430CAFD012004F0DFFE0121062004F086FA43
S1130440642002F007FF02210F2004F07FFA6420E9
S113045002F000FF0121322004F012FF642002F0B8
S1130460F9FE3B1D1A000121012004F0E9FE3B1DA9
S11304701B78092B03D12D4B180003F081F9FA23C3
S11304809B00180002F0E6FE082004F015FF64202B
S113049002F0E0FE3B1D1A000121312004F0D0FEE1
S11304A0642002F0D7FE3B1D1A000821112004F03D
S11304B0C7FE642002F0CEFE184B01221A70002100
S11304C0012004F0F3FA0F4B05221A70184B1800A0
S11304D003F076F914E0174B180003F071F9164A8B
S11304E0164B1100180005F033F8154A154B11008E
S11304F0180005F023FD034B05221A7000E0C046E6
S1130500FAE6C046EC0000203C95000000C4004020
S1130510F0010020EC01002000950000ED00002017
S11305200895000000004842EE00002014950000E9
S11305302895000030950000C8010020BC0100206F
S1130540E0010020D401002080B500AF044B180066
S1130550FFF70CFE034B01221A70C046BD4680BD56
S113056055550000EC00002080B500AF034B180087
S1130570FFF7FCFDC046BD4680BDC046AAAA0000E8
S113058080B582B000AF0200FB1D1A70FB1D1B7802
S11305907F2B09D8FB1D1B781A001F231A40044B1C
S11305A0012191400A001A60C046BD4602B080BDD8
S11305B000E100E080B582B000AF786004498E238A
S11305C05B007A68CA50C046BD4602B080BDC046D2
S11305D00060004080B582B002AF134B01211800C7
S11305E000F084FC012303220221022001F042FADC
S11305F00E4B1800FFF7DEFF0D4B1800FFF7DAFF74
S11306000120FFF7BDFF0620FFF7BAFF0123019386
S113061000230093012302220221022001F0A8F901
S1130620C046BD4680BDC04600820400AAAA0000A0
S11306305555000080B588B000AF786008001100FF
S1130640FB1C021C1A70BB1C0A1C1A70BB1C1B78F6
S1130650002B04D010237B61414BBB6103E00023DA
S11306607B61404BBB617B685A6BBB6913403B6148
S11306700023FB617B683C4A93426CD13B4BFB609B
S1130680FB1C1B78062B5BD89A00394BD3181B68CC
S11306909F46FB681B681B0A1A02FE23DB011340FA
S11306A0FA691343FB61FB681B687F221340FA69F4
S11306B01343FB6147E0FB681B681B0E1A02FE2311
S11306C0DB011340FA691343FB61FB681B681B0CD5
S11306D07F221340FA691343FB6134E0FB6804335F
S11306E01B681B0A1A02FE23DB011340FA69134339
S11306F0FB61FB6804331B687F221340FA691343D0
S1130700FB6120E0FB6804331B681B0E1A02FE2306
S1130710DB011340FA691343FB61FB6804331B6874
S11307201B0C7F221340FA691343FB610BE0FB6847
S113073008331B687F221340FA691343FB6102E00C
S11307400023FB61C046FA697B699A403B691A43FE
S11307507B685A6300E0C046BD4608B080BDC04611
S1130760FFFF80808080FFFF00200040B481E00F05
S11307705495000090B585B000AF786039600B21C6
S11307807B183A6812791A707B181B78002B09D1F0
S11307900B23FC181F4B0021180000F08BF80300FA
S11307A023700AE01B4B0021180000F083F8FA23A1
S11307B0DB010021180000F07DF87B680A225A60F2
S11307C03B681B781A063B68DB781904FE23DB03BD
S11307D00B401A430B23FB181B781902FE23DB0181
S11307E00B401A433B685B781B0113433A689278C9
S11307F01343FB603B685B79002B03D0FB68082242
S11308001343FB607B68FA681A60C046BD4605B0B6
S113081090BDC046405DC60080B584B000AF78602E
S113082039607B6802225A603B6899787B680022B1
S11308301800FFF7FFFE3B681B781A073B685B78DC
S11308401B0513433A68127912021A433B68DB789A
S11308501B011343FB603B689B79002B04D0FB68AE
S1130860802252041343FB603B68DB79002B03D0E6
S1130870FB6804221343FB603B685B79002B03D0C5
S1130880FB6802221343FB603B681B7A002B03D0F6
S1130890FB6801221343FB603B689B781B04FA68E6
S11308A01343FB607B68FA68DA60C046BD4604B057
S11308B080BD000080B584B000AF786039607B688B
S11308C0184A934202D9174B7B6006E07B68164AAC
S11308D0934202D8FA23DB017B603B68002B05D1ED
S11308E0124B180000F05AFB03003B603A687B6827
S11308F0D318013B7968180005F024FD0300FB6060
S1130900FB68002B02D0FB68013BFB60FB687F2B7C
S113091001D97F23FB60FB68DBB21800BD4604B03D
S113092080BDC046405DC600FF7C000040810400DD
S113093080B582B000AF78607B68002B0AD10F4B82
S1130940180000F02BFB03007B607B68002B01D1B7
S113095001237B607B680A4A944663447B607B681E
S11309600849180005F0EEFC03007B607B68DBB2ED
S1130970013BDBB21800BD4602B080BD40810400DB
S11309803F420F0040420F0080B586B000AFF860D0
S1130990B9607A60FB681B687B610122BB689A407E
S11309A01300DB431A007B691A407B68012119405C
S11309B0BB6899400B001A43FB681A60C046BD46E9
S11309C006B080BD80B582B000AF786039607B68C6
S11309D01A683B68DA401300012213401800BD4630
S11309E002B080BD80B584B000AF78607B68002B16
S11309F000D0C046786805F093FE0300DBB21A000D
S1130A001F239B1AFB60FB681800BD4604B080BD21
S1130A1080B500AF034BDB6C1B0EDBB21800BD4688
S1130A2080BDC046B081E00F80B582B000AF224BDC
S1130A305A69E023DB0013408022920093421ED0C7
S1130A4080229200934206D8002B26D080225200A6
S1130A5093421FD027E0C0229200934204D0E022A8
S1130A60D20093421CD01EE0FFF7D2FF0300122BEA
S1130A7002D9124B7B6019E0114B7B6016E0FFF743
S1130A80C7FF0300122B02D90E4B7B600EE00E4B06
S1130A907B600BE00D4B7B6008E00D4B7B6005E059
S1130AA00C4B7B6002E000237B60C0467B6818002F
S1130AB0BD4602B080BDC04600800C40804F12008D
S1130AC040420F0040B56400C0CF6A00C0D8A70000
S1130AD0809FD500406F400190B583B000AFFC1CEF
S1130AE00E4B180000F0FAFA03002370FB1C1B786D
S1130AF0072B06D0092B09D103F07EF903007B6094
S1130B0007E0FFF791FF03007B6002E000237B60B6
S1130B10C0467B681800BD4603B090BD06000E00B9
S1130B2080B584B000AF786039600F4B5B680722F2
S1130B301340FB607B680D4A934202D80023FB609C
S1130B4005E07B680A4A934201D80123FB60064B07
S1130B505B68072293431900034BFA680A435A60FF
S1130B60C046BD4604B080BD00000C400024F40023
S1130B700048E80180B582B000AF0D4BDA6BFB1D75
S1130B80511E8A411A700A4B0A4ADA6303F02CF99F
S1130B90030000211800FFF7C3FFFB1D1B78002B87
S1130BA002D0034B0022DA63C046BD4602B080BDCA
S1130BB000000C40711B000090B585B000AF786058
S1130BC039600D4BDA6B0F243B19511E8A411A70A0
S1130BD0094B0A4ADA633A687B6811001800FFF788
S1130BE09FFF3B191B78002B02D0034B0022DA63D2
S1130BF0C046BD4605B090BD00000C40711B00000E
S1130C0080B584B000AF78600023BB607B68364A4F
S1130C10934206D0354A934203D0354A934200D0DA
S1130C2000E0C0467B68180000F058FA0300FB603F
S1130C307B682D4A93420CD02C4A934210D02C4A04
S1130C40934200D013E02B4B9B6A03221340FB60BA
S1130C500DE0284B9B6A9B0803221340FB6006E0CF
S1130C60244B9B6A1B0903221340FB60C046FB68AC
S1130C70012B05D014D3022B07D0032B0AD02AE072
S1130C8003F044F90300BB6029E003F04DF90300CD
S1130C90BB6024E003F08CF803005B08BB601EE03B
S1130CA00023BB607B68124A934203D07B680E4AE0
S1130CB0934213D10F4B9A6A7B680D498B4201D141
S1130CC0102300E01423DA40131E07D003F025F9A3
S1130CD00300BB6002E00023BB6000E0C046BB68C9
S1130CE01800BD4604B080BD0300200004002200AB
S1130CF002001E0000800C4080B582B000AF786016
S1130D00074B5B6D0122134006D1C046044B1B6D9B
S1130D107A681340FAD100E0C046BD4602B080BDF7
S1130D2000800C4090B583B000AFFC1C164B18003B
S1130D3000F0D4F903002370FB1C1B78032B0DD0A7
S1130D4002DC022B05D017E0092B10D00A2B0AD0A5
S1130D5012E003F0E9F803007B6010E003F0D6F83A
S1130D6003007B600BE0094B1B687B6007E003F02A
S1130D7043F803007B6002E000237B60C0467B688D
S1130D801800BD4603B090BD0733260000000020C4
S1130D9080B500AFC046BD4680BD80B500AFC0463B
S1130DA0BD4680BD80B584B000AF786039607B6893
S1130DB01B090F221340FB60FB68092B00D985E057
S1130DC0FB689A00444BD3181B689F463B68002B72
S1130DD000D0C046FFF7CEFE404B1B68404A13408C
S1130DE019003B68013B9A033C4B0A431A6002F02A
S1130DF0DFFF0300BB60BB6800211800FFF7DCFEC7
S1130E0065E03B68002B00D0C0463B681800FFF744
S1130E10E9FD03003B60314B9B680F2293431900AB
S1130E202E4B3A680A439A6051E03B68002B00D08D
S1130E30C046FFF79FFE3B681800FFF7D3FD030091
S1130E403B60264B5B680F2293431900234B3A689F
S1130E500A435A6002F0ACFF0300BB60BB68002188
S1130E601800FFF7A9FE32E07B681E4A934200D0C7
S1130E7012E00420FFF740FF3B681800FFF7B2FDC3
S1130E8003003B60154B9B6E0F2293431900134BD9
S1130E903A680A439A66C04619E07B68124A93424C
S1130EA000D012E04020FFF727FF3B681800FFF74F
S1130EB099FD03003B60094B1B6F03229343190008
S1130EC0064B3A680A431A67C04600E0C046C0466B
S1130ED0BD4604B080BDC0467095000000800C4043
S1130EE0FF3FFEFF8006120090071A0080B586B00F
S1130EF000AF78600A00FB1C1A7000233B617B681A
S1130F001B0A0F2213400A2B34D89A001B4BD31808
S1130F101B689F461A4B7B6118E01A4B7B6115E0F6
S1130F20194B7B6112E0194B7B6101233B610DE09E
S1130F30174B7B6110233B6108E0164B7B618023D8
S1130F405B003B6102E0144B7B61C0467B681B0B7A
S1130F501F221340FB603B69002B03D03B69180040
S1130F60FFF7CAFEFB1C1A78F9687B691800FFF7C3
S1130F700BFD00E0C046BD4606B080BD989500005C
S1130F8040800C4008800C4044800C4058800C4049
S1130F9060800C4064800C4078800C4080B584B044
S1130FA000AF78607A68F8239B03134080225203D1
S1130FB0934200D179E080225203934213D88022D5
S1130FC0920293423BD080229202934202D8002B99
S1130FD023D074E08022D202934223D0E022120371
S1130FE093425DD06BE0F022520393422CD0F02266
S1130FF05203934208D89022520393422BD0D0221A
S1131000520393423DD05AE080229203934231D05E
S11310109822920393424DD051E002F0EDFE03007A
S1131020FB604FE002F0E8FE0300FB60284B9B6886
S11310300F221340FA68DA401300FB6042E002F02A
S1131040B7FE0300FB603DE0224B1800FFF7D8FD1C
S11310500300FB6036E01F4B1800FFF7D1FD0300CF
S1131060FB601B4B9B6E0F221340FA68DA4013009F
S1131070FB6027E0184B1800FFF7C2FD0300FB607C
S113108020E0154B1800FFF7BBFD0300FB60104B7D
S11310901B6F03221340FA68DA401300FB6011E06F
S11310A0FFF71AFD0300FB600CE0FFF7BDFC030033
S11310B0FB6007E0FFF736FE0300FB6002E000235D
S11310C0FB60C046FB681800BD4604B080BDC04646
S11310D000800C4002001E000300200080B584B094
S11310E000AF78600F23FB1801221A707B680F226F
S11310F01340BB60BB68072B00D9CAE0BB689A00E9
S11311006A4BD3181B689F46694BDB6A694A1340D4
S113111080225201934216D080225201934204D875
S113112080221201934213D01CE080229201934248
S113113004D08022D20493420FD013E00F23FB1873
S113114002221A7013E00F23FB1803221A700EE018
S11311500F23FB1804221A7009E00F23FB180B223B
S11311601A7004E00F23FB1805221A70C04695E09C
S11311704F4B9B6A03221340022B08D0032B0BD046
S1131180012B0ED10F23FB1803221A7015E00F2335
S1131190FB1802221A7010E00F23FB1806221A70A3
S11311A00BE0434B9A6A80235B02134004D00F2365
S11311B0FB180C221A7000E0C0466FE03C4B9B6A9F
S11311C00C221340082B08D00C2B0BD0042B0ED16F
S11311D00F23FB1803221A7015E00F23FB180222B9
S11311E01A7010E00F23FB1806221A700BE0304B24
S11311F09A6A80235B03134004D00F23FB180C224C
S11312001A7000E0C04649E0294B9B6A3022134023
S1131210102B02D0202B05D009E00F23FB1803224A
S11312201A7009E00F23FB1802221A7004E00F233E
S1131230FB1801221A70C04630E00F23FB18072266
S11312401A702BE01A4BDA6AE023DB021340802287
S11312509202934212D08022D202934204D080227E
S11312605202934205D00EE00F23FB180A221A7093
S11312700EE00F23FB1802221A7009E00F23FB185B
S113128003221A7004E00F23FB1801221A70C046CF
S113129004E00F23FB1800221A70C0460F23FB182A
S11312A01B781800BD4604B080BDC046C49500003C
S11312B000800C40003C000480B588B000AF78602A
S11312C00A00FB1C1A700323FB611B23FB18032277
S11312D01A7000233B617B680F221340FB60FB689C
S11312E0072B00D9F7E0FB689A007F4BD3181B68E3
S11312F09F46FB1C1B780C2B00D9EEE09A007B4B1D
S1131300D3181B689F460423FB611B23FB18002290
S11313101A701BE00323FB611B23FB1801221A70C4
S113132014E00223FB611B23FB1802221A700DE058
S11313300123FB611B23FB1803221A7006E005231B
S1131340FB611B23FB1805221A70C0461B23FB18E4
S11313501B7801220121180000F0D4F8FFF70AFCE1
S1131360FFF716FD624BFA695A6202F021FD030091
S1131370BB60BB6800211800FFF71EFCFFF70DFDE2
S1131380AEE0FB1C1B780C2B00D9A8E09A00594B4B
S1131390D3181B689F4600237B611DE001220121B5
S11313A0002000F0AFF802237B6115E00122012147
S11313B0012000F0A7F801237B610DE04E4B0122D0
S11313C002211800FFF7E0FA03237B6104E0002305
S11313D07B6101233B61C046FB68022B0CD1444B6B
S11313E09B6A464A1A407B691A4311003B691A04F6
S11313F03F4B0A439A6273E03D4B9B6A404A1A4052
S11314007B699B001A4311003B691A05384B0A4358
S11314109A6265E0FB1C1B78022B07D0032B0DD0CE
S1131420012B00D05CE000237B610FE0012201214D
S1131430002000F067F802237B6107E0012201210C
S1131440012000F05FF801237B61C046284B9B6AB2
S11314503022934319007B691A01254B0A439A628F
S11314603EE0FB1C1B78032B14D00A2B22D0022B4A
S113147000D035E001220121002000F043F81C4B8C
S113148040225A62C0461A4BDA6A80235B02134038
S1131490F9D01FE001220121012000F033F8144BA0
S11314A060225A62C046124BDA6A80239B021340C0
S11314B0F9D00FE001220121052000F023F80C4BA4
S11314C080225A62C0460A4BDA6A8023DB02134048
S11314D0F9D0C04604E0C04602E0C04600E0C04681
S11314E0BD4608B080BDC046E495000004960000E7
S11314F000800C403896000040800C40FCFFFEFF4A
S1131500F3FFEFFF90B587B000AF040008001100AF
S1131510FB1D221C1A70BB1D021C1A707B1D0A1CA9
S11315201A70FB1D1B78052B4BD89A00274BD31838
S11315301B689F4601233B610223FB6001237B61FF
S113154026E004233B610823FB6003237B611FE047
S113155010233B612023FB6005237B6118E04023BB
S11315603B618023FB6007237B6111E080235B00E8
S11315703B6180239B00FB6009237B6108E080239F
S1131580DB003B6180231B01FB6016237B61C046AB
S1131590BB1D1B78002B10D00D4B3A691A627B1DC2
S11315A01B78002B0ED0C0467B690A4A1900100034
S11315B0FFF708FA031EF7D004E0054BFA681A6235
S11315C000E0C046BD4607B090BDC0466C96000022
S11315D000800C402C800C4080B582B000AFEFF34B
S11315E010833B603B687B6072B67B681800BD4625
S11315F002B080BD80B582B000AF78607B68002BFC
S113160000D162B6C046BD4602B080BD80B582B08E
S113161000AFEFF310833B603B687B6072B67B687E
S11316201800BD4602B080BD80B582B000AF7860BE
S11316307B68002B00D162B6C046BD4602B080BDB7
S113164080B500AF02F0B4FBC046BD4680BD0000CB
S113165080B500AF034A84230021D150C046BD4663
S113166080BDC04600800C4080B500AF034A84238F
S11316700349D150C046BD4680BDC04600800C40E1
S11316800E58000080B584B000AF0200FB1D1A7034
S1131690FB1D1B78002B0BD1304BDA6A304B1A60E0
S11316A01120FFF71BFD03001A002E4B1A7050E0A7
S11316B02A4A8423D35801221340FB60FFF7D4FF46
S11316C00023BB60264B1B6801221340BA681343F6
S11316D0BB60234B1B6810221340BA681343BB60E2
S11316E01F4B1B6840221340BA681343BB601C4B5A
S11316F01B6804221340BA681343BB60184B1A6872
S113170080235B001340BA681343BB60144B1B680F
S1131710DA0A8023DB001340BA681343BB600F4B23
S1131720BA681A620F4B1B78052B05D00D4B1B783A
S113173019001120FFF7C0FD094B1B68012213405B
S113174002D1064B02221A62FB68002B01D0FFF77C
S11317507FFFC046BD4604B080BDC04600800C403B
S1131760F0000020F400002080B500AF0123180031
S1131770BD4680BD80B500AFC046BD4680BD80B5C6
S113178000AFC046BD4680BDB0B586B000AF020014
S1131790FB1D1A70FB1D1B78002B02D00020FFF7E5
S11317A071FF214B1A69204B04210A431A61172542
S11317B07C19FFF7D9FF030023707B191B78002BDA
S11317C00BD01A4B1B681A4A1A4008203B181A609F
S11317D016493B181B6880228B50FFF7CBFFFFF79D
S11317E0FBFE03003B6107F083FE3B691800FFF733
S11317F001FFFFF7C4FF1723FB181B78002B04D04D
S11318000A4A0823FB181B681360FB1D1B78002B76
S113181003D00120FFF736FF01E0FFF711FFC046B8
S1131820BD4606B0B0BDC04600ED00E000E100E0FA
S113183094A3F7FF80B586B000AFF860B9607A6012
S1131840FB681B687B610122BB689A401300DB4381
S11318501A007B691A407B6801211940BB689940D2
S11318600B001A43FB681A60C046BD4606B080BD33
S113187080B584B000AFF860B9607A60FB681B681B
S1131880BA68D2431A407B681A43FB681A60C046A0
S1131890BD4604B080BD000080B582B000AF786062
S11318A004498E235B007A68CA50C046BD4602B024
S11318B080BDC0460060004080B582B000AF020029
S11318C03960FB1D1A70FB1D1B78002B0DD0FB1D0E
S11318D01B78012B09D0FB1D1B78022B05D0FB1DA7
S11318E01B78032B01D0FB1D1B7801223B689A4017
S11318F010000749FB1D1A781300DB009B189B009E
S1131900CB1814331860C046BD4602B080BDC04633
S11319100060004080B582B000AF02003960FB1D5A
S11319201A70FB1D1B78002B0DD0FB1D1B78012B9F
S113193009D0FB1D1B78022B05D0FB1D1B78032B44
S113194001D0FB1D1B7801223B689A401000074917
S1131950FB1D1A781300DB009B189B00CB18103377
S11319601860C046BD4602B080BDC046006000405D
S113197090B587B000AFB9607A6019000F243B19A5
S1131980021C1A700E23FB180A1C1A7000237B61B8
S11319903B191B78002B11D00F23FB181B78012B4C
S11319A00CD00F23FB181B78022B07D00F23FB1836
S11319B01B78032B02D00F23FB181B787B68072BA3
S11319C011D87B689B0007229A4011000F23FB1853
S11319D01A787B689B009A4013001A00204B180069
S11319E0FFF746FF13E07B68083B7B617B699B0044
S11319F007229A4011000F23FB181A787B699B0079
S1131A009A4013001A00174B1800FFF731FF0E23FA
S1131A10FB181A787B6814481900FFF70BFF202382
S1131A2008229446BC4463441A787B680F48190022
S1131A30FFF700FF01227B689A4013001800FFF7AC
S1131A402BFF242308229446BC4463441A787B6801
S1131A5007481900FFF7EEFEC046BD4607B090BD2B
S1131A600061004004610040086100400C610040D6
S1131A701061004090B585B000AFB96011007B6083
S1131A800F243B19021C1A700E23FB180A1C1A702F
S1131A903B191B78002B11D00F23FB181B78012B4B
S1131AA00CD00F23FB181B78022B07D00F23FB1835
S1131AB01B78032B02D00F23FB181B780E23FB1873
S1131AC01B78002B13D07B68002B08D0BA680F2337
S1131AD0FB181B7811001800FFF71CFF07E0BA6819
S1131AE00F23FB181B7811001800FFF7E5FEBB68F5
S1131AF0072B25D836490F243B191A781300DB002D
S1131B009B189B00CB1804331B68BA6892000F2102
S1131B1091400A00D24313400E22BA181178BA68D1
S1131B20920091400A00110029483A191278194389
S1131B301300DB009B189B00C318043319602AE0D0
S1131B4023490F243B191A781300DB009B189B00D0
S1131B50CB1808331B68BA681E498C46624492004D
S1131B600F2191400A00D24313400E22BA18117873
S1131B70BA68184884466244920091400A001100F1
S1131B8013483A19127819431300DB009B189B0081
S1131B90C318083319600E23FB181B78002B13D1CC
S1131BA07B68002B08D0BA680F23FB181B78110040
S1131BB01800FFF7AFFE07E0BA680F23FB181B7885
S1131BC011001800FFF778FEC046BD4605B090BD71
S1131BD000600040F8FFFF3F80B582B000AF78603E
S1131BE039607B683A681A63C046BD4602B080BD5E
S1131BF080B586B000AFF860B9607A60FB681B6896
S1131C007B610122BB689A401300DB431A007B69A5
S1131C101A407B6801211940BB6899400B001A43A4
S1131C20FB681A60C046BD4606B080BD80B584B06E
S1131C3000AFF860B9607A60FB681B68BA68D24389
S1131C401A407B681A43FB681A60C046BD4604B05C
S1131C5080BD80B582B000AF786001E07B68DB694D
S1131C607B68DA6880235B001340F7D1C046BD4629
S1131C7002B080BD80B588B000AFF860B9607A600A
S1131C801A00FB1C1A707B68002B00D176E0FB1C49
S1131C90FA1C127803210A401A70FB681B683A4A3E
S1131CA01A40FB681A60F868FB1C1B781B021A00B8
S1131CB0C0239B001900FFF7B9FFBB68002B09D1B3
S1131CC0FB68324A934205D1314B1800FFF766F99D
S1131CD00300BB6001235B42BB61FB681B680222FB
S1131CE0134011D0FB1C1B78012B07D0022B08D00A
S1131CF0002B00D01AE0274BBB6117E0264BBB61D9
S1131D0014E0264BBB6111E0FB1C1B78012B07D0B0
S1131D10022B08D0002B00D008E0214BBB6105E06A
S1131D20204BBB6102E0204BBB61C046FB1C1B780F
S1131D301E4AD35C7B617B697A6853433B613B6990
S1131D40002B1DD07B689B00BA68D21A3B69D3185C
S1131D50013B3969180004F0F5FA0300013BFB610B
S1131D60FB681B680222134004D0FB69002B01D1DD
S1131D700123FB61FA69FB681A6102E0C04600E0D6
S1131D80C046BD4608B080BDFFFCFFFF00A0004078
S1131D9000B2040040164000C0D8A700805074016F
S1131DA080841E0040548900002D31018496000077
S1131DB080B582B000AF78600A00FB1C1A707868A6
S1131DC0FB1C1B781A000021FFF712FFC046BD461A
S1131DD002B080BD80B582B000AF786039607B68A6
S1131DE000225A63114A7B6811001800FFF7F4FEC1
S1131DF078683B685B7801225340DBB21A0001210A
S1131E00FFF7F6FE3B6859683B689A683B681B7BA2
S1131E107868FFF72FFF3B681A787B681100180079
S1131E20FFF7C6FFC046BD4602B080BDFFFF0100FC
S1131E3080B588B000AF78607B68C74A934205D10B
S1131E40C64BBB61BB699B687B6102E004235B42B8
S1131E500FE27B689B6A3B613A69C023DB00134055
S1131E6014D03A6980239B00134003D0BB69FD2240
S1131E705A7007E03A698023DB00134002D0BB6943
S1131E80FE225A70BB6909221A70DDE1BB691B7816
S1131E90082B00D9C4E19A00B14BD3181B689F46A4
S1131EA07B695B881A00102313400AD07B691B8866
S1131EB01B0A9BB21A0006231340F0221343FB6152
S1131EC00FE07B691B881A00FE231340FB617B69CA
S1131ED05B881A000223134003D0FB6901221343D9
S1131EE0FB61BB6901221A707B68FA695A627B68DC
S1131EF001225A60A8E13B69802213400ED07B681E
S1131F0080211800FFF768FEBB69FF225A70BB6985
S1131F1008221A707B6802225A608AE13B694022D7
S1131F20134000D185E17B6840211800FFF754FE7F
S1131F307B695B881A00102313400AD0BB69022214
S1131F401A707B691B881A00FF231A407B685A6247
S1131F506FE17B695B881A000223134010D0BB69D0
S1131F6007221A70BB691B797A69DB00D31808331E
S1131F701B88012B00D05CE17B6808225A6058E181
S1131F80BB6905221A7053E13B69802213400ED0CD
S1131F907B6880211800FFF71FFEBB69FF225A707F
S1131FA0BB6908221A707B6802225A6043E13B69CC
S1131FB04022134000D13EE17B6840211800FFF726
S1131FC00BFE7B695B881A000223134003D0BB69B4
S1131FD003221A702CE1BB6905221A7028E17B697F
S1131FE05B881A00102313400AD07B691B881B0AE4
S1131FF09BB21A0006231340F0221343FB6105E051
S11320007B691B881A00FE231340FB617B695B8894
S11320101A000423134003D0FB6901221343FB611C
S1132020BB6904221A707B6801225A607B68FA69D2
S11320305A6209E13B69802213400ED07B688021FB
S11320401800FFF7C9FDBB69FF225A70BB6908225B
S11320501A707B6802225A60EFE03B694022134009
S113206000D1EAE07B6840211800FFF7B5FD7B69E9
S11320705B881A000423134003D0BB6907221A703B
S1132080DBE0BB6905221A70D2E0BB695A88BB69E0
S11320901B797969DB00CB1808331B889A4224D357
S11320A0BB6900225A80BB691B790133DAB2BB6970
S11320B01A717B695B881A000423134003D0BB693F
S11320C003221A70B4E07B695B881A000123134071
S11320D004D1BB691B79012B00D8A8E0BB69082295
S11320E01A707B6802225A60AEE0BB691B797A6978
S11320F0DB00D31804331A68BB695B88591C88B2A7
S1132100B9694880D3181B781A007B685A62BB6986
S113211006221A7098E03B69802213400ED07B6837
S113212080211800FFF758FDBB69FF225A70BB6974
S113213008221A707B6802225A6080E03B694022C0
S1132140134000D17BE07B6840211800FFF744FD79
S1132150BB6905221A706BE000A00040F800002063
S1132160889600003B692022134000D169E0BB69D6
S11321701B797A69DB00D31808331B88FB607B6802
S1132180DA690B23FB181A70BB695B881A00FB68B9
S1132190934211D9BB691B797A69DB00D3180433E4
S11321A01A68BB695B88591C88B2B9694880D3181E
S11321B00B22BA1812781A70BB695B881A00FB6884
S11321C093420CD8FB68012B02D17B6808225A6029
S11321D0BB6908221A707B6802225A6031E07B686E
S11321E004225A60FB68012B2BD9BB695B881A0057
S11321F0FB68013B9A4224D17B6808225A6020E0A4
S11322003A6980235B0013401DD080235A007B6809
S113221011001800FFF7E0FCBB6909221A7012E0F4
S1132220BB69FB225A70BB6909221A700CE0C046D4
S11322300FE6C04608E0C04606E0C04604E0C046DB
S113224002E0C04600E0C046BB691B78092B0BD1F5
S11322507B6800225A63BB695B785BB2012B05D1B2
S1132260BB6900225A7001E0012302E0BB695B787C
S11322705BB21800BD4608B080BDC04680B584B0CE
S113228000AF786039607B68294A934207D1294BB3
S1132290FB607B689B680122134006D002E00423A4
S11322A05B4241E07B6820225A603B685B881A00ED
S11322B00223134003D03B681B89002B09D03B68E1
S11322C05B881A000423134006D03B681B8A002B4A
S11322D002D104235B4227E0FB6800221A70FB68EA
S11322E001225A70FB6800225A80FB6800221A718E
S11322F0FB683A689A607B68C0225A607B68180061
S1132300FFF7A7FC0C4A7B6811001800FFF764FC78
S11323107B685B6BFC22D2001A437B685A637B6840
S11323201800FFF785FD03001800BD4604B080BD0A
S113233000A00040F8000020FFFF010080B586B037
S113234000AFF860B9607A60FB681B687B610122AA
S1132350BB689A401300DB431A007B691A407B6810
S113236001211940BB6899400B001A43FB681A60AD
S1132370C046BD4606B080BD80B584B000AF78606D
S11323807B68002B02D0012B04D007E0074B9B682D
S1132390FB6006E0054BDB68FB6002E00023FB60AA
S11323A0C046FB681800BD4604B080BD000008406C
S11323B080B584B000AF786039607B68002B02D0B0
S11323C0012B03D008E0064BFB6002E0054BFB60E9
S11323D0C046FB683A681A60BD4604B080BDC0467A
S11323E0080008400C00084080B582B000AF02002D
S11323F0FB1D1A70FB1D1B7804481A000021FFF70F
S11324009DFFC046BD4602B080BDC04600000840E6
S113241080B584B000AF78607B681B78002B02D055
S11324200123FB6001E00023FB607B685B78002BE9
S113243003D0FB6802221343FB607B689B78002B6C
S113244003D0FB6804221343FB60034BFA681A6051
S1132450C046BD4604B080BD0000084080B500AF52
S11324600020FFF7C1FF0120FFF7BEFFC046BD46B5
S113247080BD80B582B000AF78600A00FB1C1A7082
S1132480FB1C1B7810221343DBB21A007B689A658D
S1132490C046BD4602B080BD80B586B000AFF860CE
S11324A0B9607A601A00FB1C1A70BB68002B05D156
S11324B0294B1800FEF772FD0300BB60FB1C1B7860
S11324C0202B0BD002DC002B05D041E0402B08D0A0
S11324D0602B0ED03CE010237B610DE008237B6170
S11324E00AE0BB680621180003F02CFF06237B6179
S11324F002E004237B61C046BB685A017B697968AA
S11325004B435B08D3183B617B697A6853431900DA
S1132510386903F017FF03003B613B69203B3B61D3
S11325203B69DB003B613B690C4A13403B61FB6840
S11325301B68602293431A00FB681A60FB681A68E0
S1132540FB1C1B781A43FB681A60FB683A695A61E2
S1132550BD4606B080BDC04640810400F8FF1F00A0
S113256080B582B000AF786039607B68214AC0468C
S11325707B68180000F040F83B689B7C002B06D079
S11325807B681B688022D2051A437B681A603B680B
S1132590DB7C002B06D03B681A7D7B681100180099
S11325A0FFF767FF3B685B7B1A003B681B8A13439A
S11325B03A68D2891A437B685A603B6859683B6819
S11325C09A683B681B7B7868FFF766FF3B685B7D16
S11325D0002B06D07B681B68802252021A437B685A
S11325E01A603B681B781A007B68DA60C046BD46F7
S11325F002B080BD00C0004080B582B000AF7860FA
S11326007B681B4AC0467B681A4ADA607B680022F2
S11326101A607B68184A5A607B6800229A607B685B
S113262000225A617B680022DA647B68134A9A6448
S11326307B6800225A657B680D4A934203D07B680D
S11326400F4A934202D17B6800221A657B680022FC
S11326509A657B68064A934203D07B68084A934292
S113266002D17B680022DA65C046BD4602B080BD57
S113267000C00040AA0E000005100000F91F000071
S113268000C4004080B582B000AF7860C0467B686B
S11326901B6980221340FAD07B68DB69DBB2180027
S11326A0BD4602B080BD80B582B000AF78600A003C
S11326B0FB1C1A70C0467B681B6940221340FAD089
S11326C0FB1C1A787B685A63C046BD4602B080BDC5
S11326D080B582B000AF02003960FB1D1A70FB1D8B
S11326E01B78002B0DD0FB1D1B78012B09D0FB1D83
S11326F01B78022B05D0FB1D1B78032B01D0FB1D7F
S11327001B7801223B689A4010000749FB1D1A7888
S11327101300DB009B189B00CB1814331860C046D1
S1132720BD4602B080BDC0460060004080B582B0A6
S113273000AF02003960FB1D1A70FB1D1B78002BD3
S11327400DD0FB1D1B78012B09D0FB1D1B78022B20
S113275005D0FB1D1B78032B01D0FB1D1B78012228
S11327603B689A4010000749FB1D1A781300DB00F0
S11327709B189B00CB1810331860C046BD4602B0AE
S113278080BDC0460060004080B588B000AF78606E
S1132790314B01211800FEF7A9FB7B681B682F4A07
S11327A0934255D12E4BBB61BB6901211800FEF742
S11327B09DFB7B6818797B685B79190001230A22E9
S11327C0FFF758F97B6898797B68DB791900012356
S11327D00A22FFF74FF90023FB6112E07B681A79A4
S11327E07B685B7919001000FFF7A0FF7B681A79FA
S11327F07B685B7919001000FFF76AFFFB690133FE
S1132800FB61FB69082BE9DD7B681B7A1B0219005D
S11328107B681B6803220A439A6308217B18012200
S11328201A707B1801225A707B681A697B189A60A7
S11328307B68DA687B185A607B681A7D7B181A7388
S11328407B681B687A1811001800FFF7C3FA00E0D0
S1132850C046BD4608B080BD4081040000A00040D1
S113286000B2040090B585B000AF78603960144BB5
S1132870BB600F23FC183A687B6811001800FFF74F
S1132880FDFC0300237007E00F23FC187B6818008D
S1132890FFF7CEFA030023700F23FB181B785BB2FB
S11328A0012B04D1BB685A1EBA60002BECD10F2354
S11328B0FB181B785BB21800BD4605B090BDC0463E
S11328C0E093040080B582B000AF0200FB1D1A70D3
S11328D0FB1D1B787F2B09D8FB1D1B781A001F23B7
S11328E01A40044B012191400A001A60C046BD46BB
S11328F002B080BD00E100E080B582B000AF02000C
S1132900FB1D1A70FB1D1B787F2B0AD8FB1D1B783F
S11329101A001F231340054901229A40C0235B007B
S1132920CA50C046BD4602B080BDC04600E100E0CA
S113293080B500AF024B5B681800BD4680BDC04641
S11329400000084080B582B000AF7860034B7A681D
S11329509A61C046BD4602B080BDC0460000084032
S113296080B582B000AF7860054BDA697B68D943E3
S1132970034B0A40DA61C046BD4602B080BDC04682
S11329800000084080B582B000AF7860044BD9697C
S1132990034B7A680A43DA61C046BD4602B080BD83
S11329A00000084080B582B000AF054BDB697B6056
S11329B0034B1B697A6813401800BD4602B080BD02
S11329C00000084080B586B000AF786000237B61CA
S11329D000233B61214B1B7801225340DBB2002BC7
S11329E001D01F4B35E0FEF711FE0300FB6002E04F
S11329F07B6901337B617B69002B0ADC19497A69A5
S1132A0013009B009B18DB00CB181E331B78002B94
S1132A10EED17B69012B02D1134B3B6114E07B683F
S1132A20002B0FD00F497A6913009B009B18DB0021
S1132A30CB181E3301221A707A697B681A6000234E
S1132A403B6101E0094B3B61FB681800FEF7ECFDBC
S1132A503B691800BD4606B080BDC0463A0100205F
S1132A60061000F008010020011000F0041000F02E
S1132A7080B500AF254B1B78002B01D0002341E02B
S1132A80234B01211800FEF731FA224B02211800D2
S1132A90FEF712FC204B01211800FEF783F91E4BB0
S1132AA001211800FEF722FA1C4B1800FFF7B0FCB6
S1132AB00720FFF755FF0720FFF744FFFFF7CEFC81
S1132AC00C20FFF719FF0C20FFF7FCFE0120FFF795
S1132AD059FF134B28220021180006F0F1FC114B7A
S1132AE000221A70104B00221A70104B00221A6038
S1132AF00F4B00221A600F4B00221A60034B012275
S1132B001A7000231800BD4680BDC0463A0100205B
S1132B100023020002001E0080061200AC96000092
S1132B200801002038010020390100203401002070
S1132B303C01002040010020F0B589B000AFFEF751
S1132B4065FD0300FB61154B1B683B6100237B6142
S1132B50FFF7EEFE0300BB600023FB6000F0D2FA37
S1132B600E4B1B683B6000237B603B693A689342D1
S1132B70E9D17B697A689342E5D1FB691800FEF7D5
S1132B8053FD3B691E0A3B691D06BB68FC685B1963
S1132B90744118002100BD4609B0F0BD3C0100207D
S1132BA0F0B583B000AF38607960FA229200002358
S1132BB03868796803F0F2FD03000C001900220064
S1132BC08023DB0100245B1854416204DD0B1543B0
S1132BD0E60B2B001800BD4603B0F0BD80B586B0EF
S1132BE000AFFEF713FD03003B61FFF7DBFE0300BC
S1132BF0FB60FB68032293431800FFF7A3FEFB6806
S1132C00022213403DD0244B01221A70FFF790FE9C
S1132C1003007B610220FFF7A3FE7B691A021F4BAE
S1132C201B681B02D31A1B0ABB60BB68180000F0A8
S1132C3039F800F0ABF97B69180000F0D9F9FFF717
S1132C4077FE03007B617B691A02144B1B681B022D
S1132C50D31A1B0ABB600020FFF78EFB03001A0285
S1132C600E4B1B681B02D31A1B0A7B600C4B1B7890
S1132C70002B03D0BA687B689A42CBD2064B002261
S1132C801A7000F03FFA3B691800FEF7CDFCC0460D
S1132C90BD4606B080BDC04638010020300100208A
S1132CA039010020F0B58DB000AFF8610023FB625C
S1132CB062E1B549FA6A13009B009B18DB00CB184C
S1132CC01D3300221A70B049FA6A13009B009B1846
S1132CD0DB00CB181C331B78002B00D149E1AA4937
S1132CE0FA6A13009B009B18DB00CB185C681B6816
S1132CF0FA69150000221600B44202D81ED1AB4274
S1132D001CD9A149FA6A13009B009B18DB00CB185D
S1132D105C681B68FA693A6100227A6139697A69E8
S1132D205B1A944119002200974CF86A03009B0037
S1132D301B18DB00E31819605A601AE19249FA6A19
S1132D4013009B009B18DB00CB181F331B78002B50
S1132D500AD18D49FA6A13009B009B18DB00CB183B
S1132D601C3300221A70EFE0FB69BB600023FB6098
S1132D708549FA6A13009B009B18DB00CB185C683A
S1132D801B68B968FA68C91AA2410B0014003B62B7
S1132D907C627D49FA6A13009B009B18DB00CB1808
S1132DA008335C681B683B607C607749FA6A1300EF
S1132DB09B009B18DB00CB1808335C681B68386ADF
S1132DC0796A1A00230003F0C9FC1C001300396857
S1132DD07A68C91AA2416C4CF86A03009B001B185C
S1132DE0DB00E31819605A606749FA6A13009B0014
S1132DF09B18DB00CB1810331B68002B52DD624993
S1132E00FA6A13009B009B18DB00CB181433196873
S1132E105D48FA6A13009B009B18DB00C31810334B
S1132E201B68C9185848FA6A13009B009B18DB00FA
S1132E30C318143319605449FA6A13009B009B1891
S1132E40DB00CB1814331B681D2B00D87CE04E49E3
S1132E50FA6A13009B009B18DB00CB185C681B68A4
S1132E6001210022C9186241474CF86A03009B0003
S1132E701B18DB00E31819605A604349FA6A13000F
S1132E809B009B18DB00CB1814331B681E3B1900F6
S1132E903D48FA6A13009B009B18DB00C3181433E7
S1132EA0196051E03849FA6A13009B009B18DB0053
S1132EB0CB18143319683448FA6A13009B009B1822
S1132EC0DB00C31810331B68C91A2F48FA6A1300B1
S1132ED09B009B18DB00C318143319602A49FA6A53
S1132EE013009B009B18DB00CB1814331B681D2BAD
S1132EF02AD92549FA6A13009B009B18DB00CB18DA
S1132F005C681B6801214942CA17C91862411E4CFA
S1132F10F86A03009B001B18DB00E31819605A6071
S1132F201949FA6A13009B009B18DB00CB18143371
S1132F301B681E3B19001448FA6A13009B009B1877
S1132F40DB00C318143319600F49FA6A13009B009D
S1132F509B18DB00CB1818331B68002B09D00A49D7
S1132F60FA6A13009B009B18DB00CB181D33012267
S1132F701A70FB6A0133FB62FB6A002B00DC98E6E3
S1132F80C046BD460DB0F0BD0801002090B583B029
S1132F9000AF00237B6022E014497A6813009B0091
S1132FA09B18DB00CB181D331B78002B14D00F4962
S1132FB07A6813009B009B18DB00CB1818331C683D
S1132FC078680A497A6813009B009B18DB00CB18C9
S1132FD020331B681900A0477B6801337B607B6842
S1132FE0002BD9DDC046BD4603B090BD08010020CA
S1132FF090B58BB000AF786001235B42DC17BB61F6
S1133000FC6100237B622AE0394C786A03009B0050
S11330101B18DB00E3181C331B78002B1CD0344C2A
S1133020786A03009B001B18DB00E3185C681B68CC
S1133030F869A04205D8F869A0420DD1B869984250
S11330400AD92B4C786A03009B001B18DB00E31899
S11330505C681B68BB61FC617B6A01337B627B6AD1
S1133060002BD1DD234B00201870BB69013303D141
S1133070FB69013300D136E0BB69FC693B617C61CB
S11330801D4BFB60FB68190000231A003B697C6937
S1133090944202D803D18B4201D90B001400BB61C6
S11330A0FC61164B1B7801225340DBB2002B05D088
S11330B07B681B021A0A124B1A6002E0104B7A68F2
S11330C01A600220FFF73EFCBA697B68D3181B0222
S11330D01B0A19000020FFF76BF9064B01221A7036
S11330E00220FFF74FFCC046BD460BB090BDC04662
S11330F008010020390100209BFFFF003801002057
S11331003001002080B500AFFFF74CFC0200012322
S1133110134007D00120FFF715FC044B1B685A1C11
S1133120024B1A60C046BD4680BDC0463C0100202B
S113313090B583B000AF02003960FB1D1A70FB1D0F
S11331401B787F2B28D82F4AFB1D1B785BB29B086A
S1133150C0339B009B58FA1D1278110003220A40C9
S1133160D200FF2191400A00D2431A4011003B686B
S11331709B01FF221A40FB1D1B7818000323034008
S1133180DB009A401F48FB1D1B785BB29B080A4377
S1133190C0339B001A5031E01B4AFB1D1B781900F9
S11331A00F230B40083B9B0806339B00D3180433C2
S11331B01B68FA1D1278110003220A40D200FF2175
S11331C091400A00D2431A4011003B689B01FF2240
S11331D01A40FB1D1B78180003230340DB009A40B0
S11331E00948FB1D1B781C000F232340083B9B0848
S11331F00A4306339B00C31804331A60C046BD4615
S113320003B090BD00E100E000ED00E080B582B0C5
S113321000AF78607B68013B0C4A934201D90123DB
S113322010E00B4B7A68013A5A6001235B42032198
S11332301800FFF77DFF064B00229A60044B07221B
S11332401A6000231800BD4602B080BDFFFFFF00D6
S113325010E000E080B584B000AF78601D4B1B78AF
S113326001225340DBB2002B18D01B4B1800FDF792
S113327095FE0200FA239900100003F063F803009E
S11332801800FFF7C3FF031E00D0FEE7134B18001E
S113329000F054FB0F4B01221A7005E0104B1A6822
S11332A00F4B03210A431A600E4B1B68FB60C04698
S11332B00C4B1A68FB68D31A7A689A42F8D8084B00
S11332C01A68074B03218A431A60C046BD4604B0FE
S11332D080BDC0464801002070000200B096000086
S11332E010E000E04401002080B500AF034B1B68F0
S11332F05A1C024B1A60C046BD4680BD44010020E2
S1133300B0B500AFFFF718FC03000C001800210053
S1133310FFF746FC03001800BD46B0BD80B582B07F
S113332000AF0200FB1D1A70FB1D1B787F2B09D810
S1133330FB1D1B781A001F231A40044B01219140E6
S11333400A001A60C046BD4602B080BD00E100E03C
S113335080B582B000AF786039607B683A689A645F
S1133360C046BD4602B080BD80B582B000AF786073
S113337039607B68DA6C3B681A437B68DA64C04660
S1133380BD4602B080BD80B582B000AF78607B6876
S11333901B6C1800BD4602B080BD80B582B000AF82
S11333A0786039607B683A685A64C046BD4602B0AA
S11333B080BD000080B582B000AF02003960FB1D03
S11333C01A70FB1D1B78002B0DD0FB1D1B78012BE5
S11333D009D0FB1D1B78022B05D0FB1D1B78032B8A
S11333E001D0FB1D1B7801223B689A40100007495D
S11333F0FB1D1A781300DB009B189B00CB181033BD
S11334001860C046BD4602B080BDC04600600040A2
S113341090B589B000AF78600C0010001900FB1C57
S1133420221C1A70BB1C021C1A707B1C0A1C1A700A
S1133430BC4B7A681A600823FB18BB4A13CA13C32F
S113344013CA13C3B94B01211800FDF74FFDB54B47
S11334501B68B74A934205D1B64B01211800FDF70A
S113346045FD09E0AF4B1B68B34A934204D1B34B0B
S113347001211800FDF73AFDBB1C1B78002B09D075
S11334800123042209210020FEF7F4FA0921002077
S1133490FFF790FFA34B1B68A54A934245D1FB1C41
S11334A01B78062B00D982E09A00A54BD3181B6821
S11334B09F46002301220B210420FEF7DBFA01239F
S11334C004220A210420FEF7D5FA70E00023012229
S11334D00A210220FEF7CEFA69E0002301220C2122
S11334E00420FEF7C7FA012304220D210420FEF76D
S11334F0C1FA5CE00023012208210120FEF7BAFA98
S11335000123042207210120FEF7B4FA4FE000232F
S1133510012201210220FEF7ADFA01230422002139
S11335200220FEF7A7FAC04641E07E4B1B68824AA0
S113353093423CD1FB1C1B78052B38D89A00814B55
S1133540D3181B689F460023012201210220FEF7A5
S113355091FA0123042200210220FEF78BFA26E0CF
S11335600023012206210320FEF784FA012304220A
S113357007210320FEF77EFA19E00023012200212F
S11335800020FEF777FA0123042202210520FEF72A
S113359071FA0CE00023012202210220FEF76AFAEC
S11335A00123042201210220FEF764FAC0465D4B88
S11335B01B680822BA1811001800FEF7D1FFFB1C83
S11335C01B78062B44D89A005F4BD3181B689F4680
S11335D0544B1B685A6D534B1B6803210A435A65AD
S11335E03EE0504B1B685A6D4E4B1B680421FF3163
S11335F00A435A6534E04B4B1B685A6D494B1B68B0
S113360052490A435A652BE0464B1B685A6D454B99
S11336101B684F490A435A6522E0424B1B685A6DA6
S1133620404B1B684B490A435A6519E03D4B1B68E4
S11336305A6D3C4B1B6848490A435A6510E0394BA4
S11336401B685A6D374B1B6844490A435A6507E0A7
S1133650344B1B685A6D334B1B6803210A435A656C
S11336607B1C1B78002B41D02E4B1B6804211800B7
S1133670FFF77AFE2B4B1B6801211800FFF774FE3D
S1133680284B1B682A4A934206D11120FFF746FEB5
S11336901220FFF743FE0AE0224B1B68264A93429E
S11336A005D10820FFF73AFE0920FFF737FE2C4B1F
S11336B0180000F065F82B4B180000F081F82A4B35
S11336C0180000F03BF9294B180000F049F9284B89
S11336D0180000F059F9274B180000F071F8114B4D
S11336E01B6801211800FFF758FE17E01C4B180057
S11336F000F046F8204B180000F062F81A4B18004E
S113370000F01CF9194B180000F02AF9184B1800A6
S113371000F03AF9194B180000F052F8C046BD46C3
S113372009B090BDFC01002048980000008204000C
S113373000C000400032040000C400400042040005
S1133740CC980000E89800000099000003020000F3
S11337500303000003040000030500000306000047
S113376030970000389700006897000084970000A5
S1133770A0970000C4970000F09700001C98000078
S113378080B584B000AF78600023FB600BE00B4B86
S113379018687A68FB68D3181B781900FEF783FF52
S11337A0FB680133FB607A68FB68D3181B78002B35
S11337B0EDD1C046BD4604B080BDC046FC0100202A
S11337C080B582B000AF78607B681800FFF7D8FF3F
S11337D0074B1B680D211800FEF765FF044B1B689F
S11337E00A211800FEF75FFFC046BD4602B080BD47
S11337F0FC01002080B582B000AF78600A00FB1C99
S11338001A70FB1C1B78062B5BD89A00334BD31819
S11338101B689F46324B1800FFF7B2FF7B68180005
S1133820FFF7AEFF55E02F4B1800FFF7A9FF7B68A9
S11338301800FFF7A5FF2A4B1800FFF7A1FF48E087
S1133840294B1800FFF79CFF7B681800FFF798FFCF
S1133850234B1800FFF794FF3BE0244B1800FFF7BD
S11338608FFF7B681800FFF78BFF1D4B1800FFF7D5
S113387087FF2EE01E4B1800FFF782FF7B681800BD
S1133880FFF77EFF164B1800FFF77AFF21E0194B74
S11338901800FFF775FF7B681800FFF771FF104BE6
S11338A01800FFF76DFF14E0134B1800FFF768FFD3
S11338B07B681800FFF764FF094B1800FFF760FFEF
S11338C007E0074B1800FFF75BFF7B681800FFF762
S11338D057FFC046BD4602B080BDC0461C990000DB
S11338E0309700006098000068980000709800000D
S11338F078980000809800008898000080B582B015
S113390000AF78600A00FB1C1A70FB1C1A787B68F5
S113391011001800FFF76EFF074B1B680D211800FC
S1133920FEF7C1FE044B1B680A211800FEF7BBFE1C
S1133930C046BD4602B080BDFC01002080B582B007
S113394000AF7860054B1800FFF71AFF7B6818007A
S1133950FFF736FFC046BD4602B080BD9098000018
S113396080B582B000AF7860064B05211800FFF7E0
S113397041FF7B6805211800FFF7C0FFC046BD4624
S113398002B080BD9898000080B582B000AF786026
S1133990064B00211800FFF72DFF7B68002118005B
S11339A0FFF7ACFFC046BD4602B080BDA098000042
S11339B080B586B000AF78607B68002B0EDA7B6838
S11339C05B427B610D4B1800FFF7DAFE7A6908232E
S11339D0FB181100180000F02DF806E07A6808239F
S11339E0FB181100180000F025F80823FB18180034
S11339F0FFF7C6FEC046BD4606B080BDA8980000CD
S1133A0080B582B000AF78607B681800FFF7D0FF04
S1133A10074B1B680D211800FEF745FE044B1B687D
S1133A200A211800FEF73FFEC046BD4602B080BD25
S1133A30FC01002090B589B000AF786039603B6824
S1133A40002B07D17B6830221A707B680133002277
S1133A501A7064E03B68FB611B23FB1800221A7098
S1133A601A23FB1800221A7025E0FB690A211800AA
S1133A7002F0EEFC0B007B617B69092B04D87B69A7
S1133A80DBB23033D9B200E03F211B203B181B7856
S1133A900822BA18D1543B181A783B1801321A700C
S1133AA0FA697B69D31AFB61FB690A21180002F0E9
S1133AB049FC0300FB61FB69002BD6D11A23FB18D8
S1133AC01B22BA1812781A701923FB1800221A70D4
S1133AD016E01A203B181B785A1E19243B191B7830
S1133AE07968CB18082179188A5C1A703B181A78FF
S1133AF03B18013A1A703B191A783B1901321A70B3
S1133B001923FA181B23FB1812781B789A42E0D366
S1133B101B23FB181B787A68D31800221A70C0463E
S1133B20BD4609B090BD000090B583B000AF254BF1
S1133B301B681800FFF727FC03007B60214B1B6800
S1133B407A6811001800FFF703FC1E4B19681E4B1E
S1133B501C68621C1C4B1A600800FEF793FD0300EE
S1133B601A001A4B1A55184B1B68013B174AD35CB1
S1133B70DBB20D2B07D0144B1B68013B134AD35CFB
S1133B80DBB20C2B0BD1124B01221A700E4B1B68AB
S1133B90013B0E4A0021D1540B4B00221A600A4B00
S1133BA01B684D2B0AD90A4B01221A70064B1B685D
S1133BB0064A0021D154044B00221A60C046BD4677
S1133BC003B090BDFC0100204C0100200002002045
S1133BD04901002080B582B000AF194B1B68180062
S1133BE0FFF7D1FB03007B60154B1B687A6811005B
S1133BF01800FFF7ADFB7B68012213401BD0114B6B
S1133C001B684F2B14D80F4B1B680F4AD35CDBB2D5
S1133C10002B0DD00A4B18680A4B1B68591C094A23
S1133C201160094AD35CDBB21900FEF73CFD02E0E7
S1133C30044B00221A60C046BD4602B080BDC04697
S1133C40FC010020500100205002002080B500AF8C
S1133C50FFF76AFFC046BD4680BD80B500AFFFF7E1
S1133C60B9FFC046BD4680BD80B500AF034B180008
S1133C70FEF78AFDC046BD4680BDC0460400002054
S1133C80B0B588B000AF39601100FB1D021C1A707A
S1133C90BB1D0A1C1A70FB1D1B789AB208217B18E5
S1133CA01A807B1801225A807B183A685A60BB1D1F
S1133CB01B789AB27B181A817B187A18DA607B1801
S1133CC000221A820B4B1B681F257C197A181100DD
S1133CD01800FEF7C7FD030023707B191B785BB245
S1133CE0002B01D0002300E001231800BD4608B0DA
S1133CF0B0BDC04604000020B0B58AB000AFB960C2
S1133D0011007B600F243B19021C1A700E203B1813
S1133D100A1C1A703B191B789AB210217B181A805E
S1133D207B1804225A807B18BA685A603B181B78A7
S1133D309AB27B181A817B187A68DA603823FB18E8
S1133D401B789AB27B181A820C4B1B6827257C19A6
S1133D507A1811001800FEF785FD030023707B1903
S1133D601B785BB2002B04D07B6800221A700023FE
S1133D7000E001231800BD460AB0B0BD04000020D5
S1133D80064880470649074A074B9B1A03DD043B54
S1133D90C858D050FBDCFCF7A1F90000F53E000048
S1133DA0DC9B000000000020CC000020FEE7C046A1
S1133DB080B582B000AF00F01FF803007B60084BB1
S1133DC05B680F2213407A68DA4013007B60054B6E
S1133DD07A681A607B681800BD4602B080BDC04690
S1133DE000800C402400002080B500AF014B180077
S1133DF0BD4680BD00366E0180B582B000AF334B46
S1133E00DB6A334A134080225201934215D0802248
S1133E105201934204D880221201934211D017E038
S1133E2080229201934204D08022D20493420CD087
S1133E300EE0284B1B687B6039E080231B027B600B
S1133E4035E0254B1B687B6031E0244B7B602EE022
S1133E501E4BDA68E023DB00134080229200934279
S1133E6018D080229200934206D8002B18D08022CA
S1133E705200934211D016E0C0229200934206D021
S1133E808022D20093420ED1154B7B600EE0154B7D
S1133E907B600BE0144B7B6008E0144B7B6005E017
S1133EA0134B7B6002E000237B60C046C046074B97
S1133EB01B689B0B0722134001331900786802F03A
S1133EC041FA03001800BD4602B080BD00800C40DA
S1133ED0003C0004200000201C00002000366E017D
S1133EE0406F4001809FD500C0D8A70040B5640052
S1133EF0804F120080B500AF024B034A9A60C0465F
S1133F00BD4680BD00ED00E00000000080B500AFBC
S1133F1080231B021800BD4680BD80B500AFFA2384
S1133F209B001800BD4680BD80B500AF024B1B68E6
S1133F301800BD4680BDC0462000002010B500F02A
S1133F4001F810BDF8B515004746CE465A001C00CE
S1133F506B4280B52B434B4F5208DB0F1343BB42DC
S1133F601DD84B005B089846464643420343DB0F8B
S1133F7089463343BB4212D8434BE3182B4339D011
S1133F800226A3171E40CB0F1E434346034310D102
S1133F90022E47D0032E08D13C483D4905E00200DB
S1133FA00B002800210003F0EDFB0CBC9046994661
S1133FB0F8BD13002B4320D0BA4224D0B8451CD0FE
S1133FC043469A1A12153C2A2FDC002C30DA3C3274
S1133FD02EDA00200021012E3ED0022E31D0002EF8
S1133FE0E3D02C4A2C4B04F065FD284A2B4B04F0FB
S1133FF061FDDAE700F062F8D7E74B462348002B6F
S11340000EDB2749D1E790452BD0022E0AD0032E90
S1134010C2D000200021012EC7D180210906C4E7A7
S11340202049C2E719481D49BFE718481C49D2E78F
S11340302A00230003F0C2FE00F0D4F900F03EF899
S1134040C9E7144A144B04F035FD02000B000F4875
S1134050124904F02FFDA8E7802424060B19190047
S1134060A3E7022E06D0032E09D00848012E04D05F
S11340700D499AE70D480E4997E70E4995E70B4815
S11340800D4992E70000F07F000010C0182D445441
S1134090FB2109C0075C143326A6A13CFB2109407F
S11340A0FB21F93FFB21F9BFFB21E93FD221337FFB
S11340B07CD90240FB21E9BF7CD902C0F8B54E4649
S11340C057464546DE46A04BE0B54E0080468A463C
S11340D0894676089E420CDD9C4B9E4200DDA2E0A0
S11340E000D19DE04B46002B00DCE0E0984B994A60
S11340F0A1E0994B9E4200DDB3E0984B9E4200DC68
S1134100A1E001235B429B4642465346404651464A
S113411004F05EFA02000B0006000F0004F058FAE7
S113412004000D008E4A8F4B04F052FA8E4A8F4BD6
S113413003F028FB22002B0004F04AFA8C4A8D4B32
S113414003F020FB22002B0004F042FA8A4A8B4B36
S113415003F018FB22002B0004F03AFA884A894B3A
S113416003F010FB22002B0004F032FA864A874B3E
S113417003F008FB32003B0004F02AFA844A0600EC
S11341800F00844B2000290004F022FA824A834B5A
S113419004F090FC22002B0004F01AFA804A814BB0
S11341A004F088FC22002B0004F012FA7E4A7F4BB4
S11341B004F080FC22002B0004F00AFA7C4A7D4BB8
S11341C004F078FC22002B0004F002FA02000B0039
S11341D03000390003F0D6FA5346424604F0F8F9A9
S11341E05B46013366D05B46734A744CDB00E418CB
S11341F0D3181A685B6804F05DFC4246534604F029
S113420059FC02000B002068616804F053FC0300B1
S113421048460A0000280EDA802212068A180AE0AC
S1134220002800D15EE7424653464046514603F01B
S1134230A9FA03000A00180011003CBC90469946F4
S1134240A246AB46F8BD5E4A5E4B03F09BFA0022E1
S11342505D4B02F017FA002800D152E7434652465C
S1134260E9E700F0BFF8594B04000D009E422ADC38
S1134270574B9E4250DC02000B0003F083FA0022ED
S1134280514B04F017FC802306000F000022DB05CD
S11342902000290003F076FA0B00020039003000F8
S11342A003F08CFD002380468A469B462CE7284B6E
S11342B0484AC0E702000B004046514604F0FAFBAE
S11342C003000A00B7E7444B9E421ADC0022434B2A
S11342D004F0F0FB002206000F00404B20002900F0
S11342E004F076F90022384B03F04CFA0B0002007C
S11342F03900300003F062FD022380468A469B4663
S113430002E70B0002003649002003F057FD0323A7
S113431080468A469B46F7E600222B4B04F0CAFBF4
S1134320002206000F00284B2000290003F02AFA7F
S11343300B0002003900300003F040FD01238046E9
S11343408A469B46E0E6C046FFFF0F440000F07F2C
S1134350182D4454FB21F93FFFFFDB3FFFFF1F3EB5
S113436011DA22E33AAD903FEB0D76244B7BA93F63
S1134370513DD0A0660DB13F6E204CC5CD45B73F31
S1134380FF8300922449C23F0D5555555555D53FDD
S11343902F6C6A2C44B4A2BF9AFDDE522DDEAD3FD1
S11343A06D9A74AFF2B0B33F711623FEC671BC3F71
S11343B0C4EB98999999C93F58990000389900001D
S11343C09C7500883CE4377E0000F03FFFFFF23F1D
S11343D0FFFFE53FFB21F9BFFF7F03400000F83FEB
S11343E00000F0BF49004B081900704780B582B047
S11343F000AF02003960FB1D1A70FB1D1B78002BF7
S11344000DD0FB1D1B78012B09D0FB1D1B78022B43
S113441005D0FB1D1B78032B01D0FB1D1B7801224B
S11344203B689A4010000749FB1D1A781300DB0013
S11344309B189B00CB1814331860C046BD4602B0CD
S113444080BDC0460060004080B582B000AF02006D
S11344503960FB1D1A70FB1D1B78002B0DD0FB1D52
S11344601B78012B09D0FB1D1B78022B05D0FB1DEB
S11344701B78032B01D0FB1D1B7801223B689A405B
S113448010000749FB1D1A781300DB009B189B00E2
S1134490CB1810331860C046BD4602B080BDC0467C
S11344A00060004080B582B000AF02003960FB1D9F
S11344B01A70FB1D1B78002B0DD0FB1D1B78012BE4
S11344C009D0FB1D1B78022B05D0FB1D1B78032B89
S11344D001D0FB1D1B7801223B689A40100007495C
S11344E0FB1D1A781300DB009B189B00CB181833B4
S11344F01860C046BD4602B080BDC04600600040A2
S113450080B582B000AF134B01211800FCF7EEFC1C
S1134510114B01211800FCF7E9FC00237B6010E03B
S11345200E4B7A68D200D05C0C4A7B68DB00D3184F
S11345300433196800230422FDF79CFA7B680133D5
S11345407B607B68012BEBDD00231800BD4602B0C5
S113455080BDC046408104000082040078990000B8
S113456080B582B000AF78607B68002B11DB7B687C
S1134570012B0EDC0A4B7A68D200D05C084A7B68B7
S1134580DB00D31804331B681900FFF72FFF002347
S113459001E001235B421800BD4602B080BDC04665
S11345A07899000080B582B000AF78607B68002BFA
S11345B011DB7B68012B0EDC0A4B7A68D200D05CDD
S11345C0084A7B68DB00D31804331B681900FFF723
S11345D03BFF002301E001235B421800BD4602B00B
S11345E080BDC0467899000080B582B000AF786085
S11345F07B68002B11DB7B68012B0EDC0A4B7A688D
S1134600D200D05C084A7B68DB00D31804331B68F3
S11346101900FFF747FF002301E001235B42180064
S1134620BD4602B080BDC0467899000080B582B016
S113463000AF02003960FB1D1A70FB1D1B78002BB4
S11346400DD0FB1D1B78012B09D0FB1D1B78022B01
S113465005D0FB1D1B78032B01D0FB1D1B78012209
S11346603B689A4010000749FB1D1A781300DB00D1
S11346709B189B00CB1814331860C046BD4602B08B
S113468080BDC0460060004080B582B000AF02002B
S11346903960FB1D1A70FB1D1B78002B0DD0FB1D10
S11346A01B78012B09D0FB1D1B78022B05D0FB1DA9
S11346B01B78032B01D0FB1D1B7801223B689A4019
S11346C010000749FB1D1A781300DB009B189B00A0
S11346D0CB1810331860C046BD4602B080BDC0463A
S11346E00060004090B58FB000AF534B012118001B
S11346F0FCF7FCFB514B01211800FCF7F7FB0A20E7
S1134700FEF7A8FD012000F0A3F86420FEF7A2FD47
S1134710FFF7AAFA6420FEF79DFD00F079F9642002
S1134720FEF798FD0121062000F010F96420FEF741
S113473091FD30243B191A000121002000F0CEF82D
S11347403B191B78EA2B03D13D4B1800FFF718F8EF
S11347500020FFF727FF0020FFF702FF002000F0F2
S113476025F96420FEF776FD01220121002000F0E6
S113477008FB6420FEF76EFD324B181C00F0C9F9EB
S1134780022000F020FC012000F035FD012106206C
S113479000F0DCF86420FEF75DFD02210F2000F03C
S11347A0D5F86420FEF756FD0121322000F068FDA3
S11347B06420FEF74FFD30243B191A00012101202B
S11347C000F03EFD3B191B78092B03D11E4B18004A
S11347D0FEF7D6FFFA239B001800FEF73BFD0820E6
S11347E000F06AFD6420FEF735FD30243B191A0001
S11347F00121312000F024FD6420FEF72BFD3B193C
S11348001A000821112000F01BFD6420FEF722FD90
S11348100120FFF7C7FE3A000C23FB181100180013
S113482001F08CFB0120FFF79BFE084B01221A705C
S1134830C046BD460FB090BD408104000082040014
S1134840889900000000C8429C990000540100208F
S113485080B582B000AF0200FB1D1A70114B1B78AB
S113486001225340DBB2002B0AD0FB1D1B7804222B
S113487005210320FDF7FEF80A4B01221A700CE013
S1134880FB1D1B78002B04D005210320FFF7FCFE41
S113489003E005210320FFF7C9FEC046BD4602B070
S11348A080BDC0465401002080B584B000AF020032
S11348B0FB1D1A700C217B187F221A70FB1D1B78BC
S11348C01B01DAB27B185A707B1802221900D2201D
S11348D0FFF7D6F9C046BD4604B080BDB0B588B078
S11348E002AFB9607A600E217B18021C1A8017246B
S11348F03B19BA681A7008007B181B88DAB21625AF
S11349007B197F210A401A703B181B88DB099AB275
S113491015217B181A707B181B781800FFF7C4FF49
S113492010217B187A1912781A707B1800225A7099
S11349307A6879183B191B78009313000122D2205E
S1134940FFF7DAF9C046BD4606B0B0BD90B585B0F4
S113495000AF0200BB1D1A807B1D0A1C1A70BB1D10
S11349601B88DAB20F243B197F210A401A70BB1D41
S11349701B88DB099AB20E217B181A707B181B78EE
S11349801800FFF791FF0C217B183A1912781A705E
S11349907B187A1D12785A707B1802221900D220D3
S11349A0FFF76EF9C046BD4605B090BD80B584B032
S11349B000AF0200FB1D1A700F23FB181A0001211F
S11349C00620FFF78BFFFB1D1B78002B08D00F215F
S11349D07B181B7840221343DAB27B181A700BE061
S11349E00F217B181B7840229343DAB27B181A708C
S11349F07B181A787B181A700F23FB181B78190080
S1134A000620FFF7A3FF00231800BD4604B080BDB5
S1134A1080B500AF80210620FFF798FF6420FEF7E1
S1134A2019FC00231800BD4680BD000090B585B078
S1134A3000AF78600F210C007A180223FF330121A4
S1134A401800FFF74BFF21007B181B780622134048
S1134A50DAB27B181A707B181B78022B0CD002DC9C
S1134A60002B05D014E0042B0AD0062B0CD00FE049
S1134A707B680A4A1A600BE07B68094A1A6007E0FF
S1134A807B68084A1A6003E07B68074A1A60C046DC
S1134A9000231800BD4605B090BDC0460000FA3B97
S1134AA000007A3C0000FA3C00007A3D90B585B0E5
S1134AB000AF0200FB1D1A70BB1D0A1C1A700F23E5
S1134AC0FB1800221A70BB1D1B78002B03D00F2388
S1134AD0FB1808221A700F243B191B7819001020A8
S1134AE0FFF734FF3B1900221A70FB1D1B78002BC3
S1134AF003D00F23FB1801221A700F23FB181B7815
S1134B0019001120FFF722FF00231800BD4605B04D
S1134B1090BD80B582B000AF78607B68181C00F04F
S1134B2009F87B68181C00F067F800231800BD46DC
S1134B3002B080BDB0B584B000AF7860786804F08E
S1134B40A3FB03000C001A0023000020274903F0F4
S1134B5035F903000C00180021000022244B03F057
S1134B60A9FF03000C001800210004F0DFFB031C64
S1134B70FB602049F86801F0BFFD031E01D01D4B06
S1134B80FB600021F86801F0A3FD031E01D000239F
S1134B90FB600B2425003C19F86801F029FE030092
S1134BA023702C003B191A7880235B001100180035
S1134BB0FFF7CCFE3B191B780133180004F0F8FA18
S1134BC003000C001A0023000020084903F0F6F843
S1134BD003000C001800210004F0A8FB031CFB6078
S1134BE0FB68181CBD4604B0B0BDC046009491409B
S1134BF00000F03F00007F43B0B584B000AF7860A0
S1134C00786804F041FB03000C001A002300002024
S1134C102D4903F0D3F803000C00180021000022F2
S1134C202A4B03F047FF03000C001800210004F096
S1134C307DFB031CFB602649F86801F05DFD031E43
S1134C4001D0234BFB600021F86801F041FD031EF5
S1134C5001D00023FB600A2425003C19F86801F008
S1134C60C7FD030023802C003B191B881B0A9BB241
S1134C70DAB288235B0011001800FFF767FE3B19C6
S1134C801B88DAB21223FF3311001800FFF75EFE0F
S1134C903B191B880133180004F08AFA03000C0046
S1134CA01A0023000020084903F088F803000C00D0
S1134CB01800210004F03AFB031CFB60FB68181C7D
S1134CC0BD4604B0B0BDC046009491400000F03F22
S1134CD000F07F4590B585B000AF040008001100D6
S1134CE0FB1D221C1A70BB1D021C1A707B1D0A1CA2
S1134CF01A700F23FB181A0001210620FFF7EEFD9E
S1134D00FB1D1B78002B07D1BB1D1B78002B03D187
S1134D107B1D1B78002B1DD00020FFF747FE0020D1
S1134D2000F097F87B1D1A78BB1D1978FB1D1B78C2
S1134D30180000F026F83220FEF78CFA012000F06B
S1134D4088F80F217B181B7820221343DAB27B18D2
S1134D501A700AE0002000F07CF80F217B181B7801
S1134D6020229343DAB27B181A700F23FB181B78A6
S1134D7019000620FFF7EAFD00231800BD4605B020
S1134D8090BD90B585B000AF040008001100FB1D74
S1134D90221C1A70BB1D021C1A707B1D0A1C1A707F
S1134DA00E23FB181A0001210620FFF797FD0F239D
S1134DB0FB1800221A70FB1D1B78002B07D00F2252
S1134DC0BB18BA18127838218A431A7006E00F22E9
S1134DD0BB18BA18127838210A431A70BB1D1B7805
S1134DE0002B07D00F22BB18BA18127807218A4368
S1134DF01A7006E00F22BB18BA18127807210A436A
S1134E001A707B1D1B78002B08D00E217B181B7891
S1134E1008229343DAB27B181A7007E00E217B183C
S1134E201B7808221343DAB27B181A700E23FB187E
S1134E301B7819000620FFF789FD0F23FB181B7848
S1134E4019000720FFF782FD00231800BD4605B0B6
S1134E5090BD80B584B000AF0200FB1D1A700F2313
S1134E60FB1800221A70FB1D1B78002B03D00F23A4
S1134E70FB1830221A700F23FB181B781900052029
S1134E80FFF764FD00231800BD4604B080BDF0B5F3
S1134E9087B000AF78600C23FB18180000F058F8B6
S1134EA010257B191A0006212D20FFF717FD7B1909
S1134EB01B781B0219B27B195B781AB21626BB1930
S1134EC00A431A80BB1900229B5E180002F010FCF2
S1134ED0021CFB68191C101C02F0F4F8031C1A1CB9
S1134EE07B681A607B199B781B0219B27B19DB78EB
S1134EF01AB2BB190A431A80BB1900229B5E180020
S1134F0002F0F6FBFA687B681C1D111C02F0DAF84B
S1134F10031C23607B191B791B0219B27B195B7973
S1134F201AB2BB190A431A80BB1900229B5E1800EF
S1134F3002F0DEFBFA687B6808331C00111C02F0E7
S1134F40C1F8031C236000231800BD4607B0F0BD60
S1134F5090B585B000AF78600F210C007A188A23D1
S1134F605B0001211800FFF7B9FC21007B181B78B6
S1134F7006221340DAB27B181A707B181B78022BB6
S1134F800DD002DC002B05D018E0042B0CD0062B2E
S1134F900FD013E07B68E22292051A600EE07B6872
S1134FA0E42292051A6009E07B68E62292051A6001
S1134FB004E07B68E82292051A60C04600231800CA
S1134FC0BD4605B090BD90B585B000AF0200FB1D95
S1134FD01A70FB1DFA1D127806210A401A700F215F
S1134FE00C007A188A235B0001211800FFF776FC75
S1134FF021007B181B7806229343DAB27B181A70BF
S11350007B181A78FB1D1B781343DAB27B181A70CD
S11350107B181A788A235B0011001800FFF796FCAE
S113502000231800BD4605B090BD90B585B000AF13
S11350300200FB1D1A70FB1DFA1D127806210A409E
S11350401A700F210C007A180223FF330121180073
S1135050FFF744FC21007B181B7806229343DAB245
S11350607B181A707B181A78FB1D1B781343DAB26D
S11350707B181A707B181A780223FF33110018006A
S1135080FFF764FC00231800BD4605B090BD80B551
S113509082B000AF3A60FB1D021C1A70BB1D0A1CD3
S11350A01A70FB1D1B78002B2FD00020FFF77EFC0D
S11350B00020FFF7CEFE002200210120FFF761FE51
S11350C03B68181CFFF725FD002000F062F8002063
S11350D0FFF779FF01210020FFF7E8FC3220FEF7FB
S11350E0B9F889235B0003211800FFF72FFCBB1DCF
S11350F01A781423FF3311001800FFF727FC00224D
S113510000210120FFF7E6FD0CE089235B0000216C
S11351101800FFF71BFC00210020FFF7C7FC00204C
S1135120FFF797FE00231800BD4602B080BD90B57E
S113513085B000AF0200FB1D1A700F210C007A1815
S11351400223FF3301211800FFF7C8FB21007B185D
S11351501B7839229343DAB27B181A70FB1D1B7833
S11351605BB2392213405AB27B181B785BB21343EB
S11351705BB2DAB27B181A707B181A780223FF33F9
S113518011001800FFF7E2FB00231800BD4605B02C
S113519090BD90B585B000AF0200FB1D1A700F21C1
S11351A00C007A188A235B0001211800FFF796FB94
S11351B021007B181B7839229343DAB27B181A70CA
S11351C0FB1D1B785BB2392213405AB27B181B7843
S11351D05BB213435BB2DAB27B181A707B181A788D
S11351E08A235B0011001800FFF7B0FB00231800AE
S11351F0BD4605B090BD80B584B000AF0200FB1D74
S11352001A700F23FB181A0001210F20FFF766FB09
S1135210FB1D1B78002B0AD00F23FB181B781022D0
S11352201343DBB219000F20FFF790FB03E00021CA
S11352300F20FFF78BFB00231800BD4604B080BD90
S113524080B586B002AF3A60FB1D021C1A70BB1D0C
S11352500A1C1A700C217B18FA1D12781A707B181C
S113526000225A703A687918BB1D1B78009313000A
S113527001221820FEF740FDC046BD4604B080BDA3
S113528080B584B000AF0200FB1D1A70BB1D0A1C60
S11352901A700C217B18FA1D12781A707B18BA1D2B
S11352A012785A707B18022219001820FEF7E8FCC5
S11352B0C046BD4604B080BD80B582B000AF0200D8
S11352C0FB1D1A70FB1D1B78162B04D89A00094B82
S11352D0D3181B689F46012307E0C046FB1D1B78BB
S11352E019003120FFF7CCFF00231800BD4602B09F
S11352F080BDC046309A000090B585B000AF78609C
S113530008210C007B181A0008211120FFF798FFD0
S113531021007B185B781B021AB27B181B781BB226
S113532013431AB2614B1A807B18DB781B021AB242
S11353307B189B781BB213431AB25D4B1A807B18FF
S11353405B791B021AB27B181B791BB213431AB286
S1135350584B1A80584B00229B5E1A00534B002175
S11353605B5E5A43544B02215B5E1900504B002094
S11353701B5E4B43D218504B04215B5E19004D4B0E
S113538000201B5E4B43D318180002F0B1F9021C35
S11353904A4B1B68191C101C01F094FE031C1A1CB8
S11353A0474B1B68191C101C01F01AFB031C1A1C28
S11353B0444B1B68191C101C01F084FE031C1A1CAE
S11353C07B681A60404B00229B5E1A00374B002119
S11353D05B5E5A433C4B02215B5E1900344B002058
S11353E01B5E4B43D218384B04215B5E1900314BD2
S11353F000201B5E4B43D318180002F079F9021CFD
S11354002E4B1B68191C101C01F05CFE031C1A1C9B
S11354102E4B1B68191C101C01F0E2FA031C181C0B
S11354202B4B1A687B681C1D111C01F04BFE031CDE
S11354302360284B00229B5E1A001C4B00215B5EFC
S11354405A43244B02215B5E1900194B00201B5E5A
S11354504B43D2181F4B04215B5E1900154B0020EF
S11354601B5E4B43D318180002F042F9021C134B85
S11354701B68191C101C01F025FE031C1A1C164B7A
S11354801B68191C101C01F0ABFA031C181C134BED
S11354901A687B6808331C00111C01F013FE031CFE
S11354A02360C046BD4605B090BDC046B202002090
S11354B0A0020020B00200202C00002044000020A4
S11354C05801002048000020340000205C01002026
S11354D04C0000203C00002060010020500000200F
S11354E0B0B582B000AF786039607B6804331B6864
S11354F0181C03F0C9FE04000D007B681B68181C0F
S113550003F0C2FE02000B0020002900FEF716FD86
S113551000220C4B03F05CF803000C00180021007F
S1135520094A0A4B02F04AFC03000C00180021004F
S113553003F0FCFE021C3B681A60C046BD4602B084
S1135540B0BDC04600806640182D4454FB2109407C
S1135550F0B59DB000AF7860396050217B1800220F
S11355601A607B1800225A607B1800229A6044213A
S11355707B1800221A607B1800225A607B180022D4
S11355809A60002201210120FFF7FBFBB44B181C99
S1135590FFF7BFFA0120FFF7FCFD2920FFF7C7FD45
S11355A00020FFF710FD0020FFF73FFD0C23FB1840
S11355B01800FFF7CDFC1023FB181800FFF736FA8C
S11355C03220FDF747FE40210320FFF7BFF90F21EA
S11355D06920FFF7BBF91E216720FFF7B7F90F21F8
S11355E06820FFF7B3F900216820FFF7AFF94021E5
S11355F00320FFF7ABF96C23FB1800221A8017E095
S11356000520FDF727FE5C221400BB181A000221B6
S11356107020FFF763F92200BB181B789BB21B02B2
S113562099B2BB185B789AB26C23FB180A431A80B0
S11356306C23FB181B888B4A9342E1D90021672015
S1135640FFF784F95C221400BB181A0002217020B1
S1135650FFF744F92200BB181B789BB21B0299B2D6
S1135660BB185B789AB26C203B180A431A806A23F1
S1135670FC183B181B880C21180000F063FE030083
S113568023806E23FB1800221A8079E05C210C0031
S11356907B181A000C217220FFF720F921007B18D7
S11356A01B781B021BB21A007B185B781A43382044
S11356B03B181A607B189B781B021BB21A007B18DC
S11356C0DB781A433B185A607B181B791B021BB208
S11356D01A007B185B791A433B189A607B189B79F4
S11356E01B021BB21A007B18DB791A432C243B19CA
S11356F01A607B181B7A1B021BB21A007B185B7A98
S11357001A433B195A607B189B7A1B021BB21A007E
S11357107B18DB7A1A4321007B189A6044243B19D6
S11357201A683B181B68D2183B191A603B195A684F
S11357303B185B68D2183B195A603B199A683B18AE
S11357409B68D2183B199A6050203B181A687B1842
S11357501B68D2183B181A603B185A687B185B68A0
S1135760D2183B185A603B189A687B189B68D21869
S11357703B189A606E217B181A887B1801321A80B4
S11357806E23FA186A23FB1812881B889A4200D2E7
S11357907CE744243B191A686A257B191B88190085
S11357A0100000F059FE03001A003B191A603B195F
S11357B05A687B191B881900100000F04DFE030085
S11357C01A003B195A603B199A687B191B88190007
S11357D0100000F041FE03001A003B199A605026A5
S11357E0BB191A687B191B881900100000F034FEDD
S11357F003001A00BB191A60BB195A687B191B886D
S11358001900100000F028FE03001A00BB195A60AA
S1135810BB199A687B191B881900100000F01CFE44
S113582003001A00BB199A603B199B68002B1DDD0D
S113583044257B199C68FB68181C03F025FD0200B5
S11358400B000020084902F0B9FA02000B00100016
S1135850190003F077FC0300E21A7B199A601CE03C
S113586000808944EF0F00000000F03F44257B19BD
S11358709C68FB68181C03F007FD02000B00002065
S1135880EB4902F09BFA02000B001000190003F030
S113589059FC0300E2187B199A6050257B191B6898
S11358A0180001F025FF021C3B69191C101C01F0B3
S11358B009FC031C1A1C3B681A607B195B681800FE
S11358C001F016FF3A693B681C1D111C01F0FAFB3C
S11358D0031C23607B199B68180001F009FF3A69D7
S11358E03B6808331C00111C01F0ECFB031C236013
S11358F05C210C007A180423FF3302211800FEF700
S1135900EDFF21007B181B781B021BB21A007B18C9
S11359105B781A431426BB191A600C007A18062304
S1135920FF3302211800FEF7D9FF21007B181B78F2
S11359301B021BB21A007B185B781A43BB195A600E
S11359400C007A180823FF3302211800FEF7C6FF63
S113595021007B181B781B021BB21A007B185B7892
S11359601A43BB199A60BB191A687B191B68002B70
S113597000DA03339B105B42D21814217B181A609F
S11359807B185A685023FB185B68002B00DA03333A
S11359909B105B42D21814217B185A607B189A68BA
S11359A05023FB189B68002B00DA03339B105B42E7
S11359B0D21814203B189A603B181B681B12DAB2E9
S11359C05C217B181A703B181B68DAB27B185A707A
S11359D03B185B681B12DAB27B189A703B185B6841
S11359E0DAB27B18DA703B189B681B12DAB27B18A8
S11359F01A713B189B68DAB20C003B195A713B19B7
S1135A001A780423FF3311001800FEF79FFF3B1997
S1135A105A7882235B0011001800FEF797FF3B19A8
S1135A209A780623FF3311001800FEF78FFF3B1905
S1135A30DA7883235B0011001800FEF787FF3B1917
S1135A401A790823FF3311001800FEF77FFF3B1972
S1135A505A7984235B0011001800FEF777FF3B1985
S1135A601A0002219420FEF739FF21003B191B780C
S1135A701B021BB21A007B185B781A4320257B1982
S1135A801A600C007B181A0002219720FEF726FFEB
S1135A9021007B181B781B021BB21A007B185B7851
S1135AA01A437B195A600C007B181A0002219A20B1
S1135AB0FEF714FF21007B181B781B021BB21A008F
S1135AC07B185B781A437B199A607B191A68442304
S1135AD0FB181B68002B00DA0733DB1019000123C5
S1135AE099430B00D21A20217B181A607B185A683C
S1135AF04423FB185B68002B00DA0733DB10190022
S1135B00012399430B00D21A20217B185A607B1879
S1135B109A684423FB189B68002B00DA0733DB10D8
S1135B201900012399430B00D21A20203B189A60D4
S1135B303B181B681B12DAB25C217B181A703B18E5
S1135B401B68DAB27B185A703B185B681B12DAB216
S1135B507B189A703B185B68DAB27B18DA703B18D2
S1135B609B681B12DAB27B181A713B189B68DAB275
S1135B700C003B195A713B191B7819009420FEF74D
S1135B80E5FE3B195B7819009520FEF7DFFE3B1913
S1135B909B7819009720FEF7D9FE3B19DB78190092
S1135BA09820FEF7D3FE3B191B7919009A20FEF7C3
S1135BB0CDFE3B195B7919009B20FEF7C7FE4425F7
S1135BC07B191B68180001F093FD021CFB68191C6B
S1135BD0101C01F077FA031C1A1C7B681A607B19ED
S1135BE05B68180001F084FDFA687B681C1D111CB9
S1135BF001F068FA031C23607B199B68180001F00C
S1135C0077FDFA687B6808331C00111C01F05AFA0E
S1135C10031C236000210320FEF798FE00220021CC
S1135C200020FFF7AEF800231800BD461DB0F0BDFC
S1135C300000F03F90B589B000AF786039607B68B0
S1135C40B64A1A807B680233B44A1A807B680433EC
S1135C50B24A1A803B68B24A1A803B680233B04A9F
S1135C601A803B680433AE4A1A80AE4BBB61FDF721
S1135C7047FB03007B611F23FB1800221A701E23BD
S1135C80FB1800221A701D23FB1800221A7028E149
S1135C9008243B191800FFF72FFB3B191C687B688D
S1135CA000229B5E180001F023FD031C191C201C1C
S1135CB000F00EFD031E09D00823FB181B68181CF6
S1135CC001F0F6FC03001AB27B681A800823FB1863
S1135CD01C683B6800229B5E180001F009FD031C50
